:03000000020006F5
:03005F0002000399
:0300030002009761
:20006200AE82AF837C007D00C3EC9EED64808FF063F08095F0501D7A007B00C3EA9432EB6E
:200082006480948050070ABA00F10B80EE0CBC00D70D80D42275D90075E24075A0C0750888
:2000A200C07509F9750AA4750BB0750C99750D92750E82750FF87510807511907512887566
:2000C20013837514C67515A175168675178E75187F7E007F002086139003E8C007C0061207
:1300E2000062D006D0070EBE00010FEE2408F987A080E284
:06003500E478FFF6D8FD9F
:200013007900E94400601B7A009000F9780175AA00E493F2A308B8000205AAD9F4DAF27586
:02003300AAFF22
:20003B007800E84400600A790175AA00E4F309D8FC7800E84400600C7900900001E4F0A3B9
:04005B00D8FCD9FAFA
:0D0006007581181200F5E582600302000309
:0400F50075820022EE
:00000001FF
