:03000000020006F5
:03005F0002000399
:0300030002006296
:2000620075D90075E2407E007F007508C07509F9750AA4750BB0750C99750D92750E8275ED
:200082000FF87510807511907512887513837514C67515A175168675178E75A0C0EE24088E
:2000A200F987A020871B3087FD0EBE00010FC374109E74808FF063F08095F050047E007FCB
:1600C200002086D93086FD1EBEFF011FEF30E7CD7E0F7F0080C7D5
:06003500E478FFF6D8FD9F
:200013007900E94400601B7A009000DC780175AA00E493F2A308B8000205AAD9F4DAF275A3
:02003300AAFF22
:20003B007800E84400600A790175AA00E4F309D8FC7800E84400600C7900900001E4F0A3B9
:04005B00D8FCD9FAFA
:0D0006007581171200D8E582600302000327
:0400D800758200220B
:00000001FF
