:03000000020006F5
:03005F0002000399
:0300030002009761
:20006200AE82AF837C007D00C3EC9EED64808FF063F08095F0501D7A007B00C3EA9464EB3C
:200082006480948050070ABA00F10B80EE0CBC00D70D80D42275D90075E2407F007508C01E
:2000A2007509F9750AA4750BB0750C99750D92750E82750FF8751080751190751288751313
:2000C200837514C67515A175168675178E75187F20861C900019C007120062D007EFF4FF8B
:1F00E20020860C900019C007120062D00780F12086058508A080D92087D675A0FF80D10E
:06003500E478FFF6D8FD9F
:200013007900E94400601B7A00900105780175AA00E493F2A308B8000205AAD9F4DAF27579
:02003300AAFF22
:20003B007800E84400600A790175AA00E4F309D8FC7800E84400600C7900900001E4F0A3B9
:04005B00D8FCD9FAFA
:0D000600758118120101E5826003020003FC
:0401010075820022E1
:00000001FF
