:03000000020006F5
:03005F0002000399
:0300030002006296
:2000620075D90075E2407E007F007508C07509F9750AA4750BB0750C99750D92750E8275ED
:200082000FF87510807511907512887513837514C67515A175168675178E75187F2086FDCE
:2000A2000EBE00010FC374119E74808FF063F08095F050047E007F00EE2408F987A080DDC9
:06003500E478FFF6D8FD9F
:200013007900E94400601B7A009000C6780175AA00E493F2A308B8000205AAD9F4DAF275B9
:02003300AAFF22
:20003B007800E84400600A790175AA00E4F309D8FC7800E84400600C7900900001E4F0A3B9
:04005B00D8FCD9FAFA
:0D0006007581181200C2E58260030200033C
:0400C2007582002221
:00000001FF
