:03000000020006F5
:03005F0002000399
:0300030002006296
:2000620075D90075E2407E007F00438E0243890143A903758C3C758AB0D28C108D0280FBA9
:190082000EBE00010F758C3C758AB0BE14EDBF00EAB2A77E007F0080E27D
:06003500E478FFF6D8FD9F
:200013007900E94400601B7A0090009F780175AA00E493F2A308B8000205AAD9F4DAF275E0
:02003300AAFF22
:20003B007800E84400600A790175AA00E4F309D8FC7800E84400600C7900900001E4F0A3B9
:04005B00D8FCD9FAFA
:0D00060075810712009BE582600302000374
:04009B007582002248
:00000001FF
