:03000000020006F5
:03005F0002000399
:0300030002006296
:2000620075D90075E24043A902438E02438901C2A7758CFE758A0CD28C108D0280FBB2A7C7
:08008200758CFE758A0C80F1FB
:06003500E478FFF6D8FD9F
:200013007900E94400601B7A0090008E780175AA00E493F2A308B8000205AAD9F4DAF275F1
:02003300AAFF22
:20003B007800E84400600A790175AA00E4F309D8FC7800E84400600C7900900001E4F0A3B9
:04005B00D8FCD9FAFA
:0D00060075810712008AE582600302000385
:04008A007582002259
:00000001FF
