:03000000020006F5
:03005F0002000399
:0300030002006296
:200062007E007F008FD975E24043A902438E02438902758C06758A06D28CBEE809BF030612
:12008200B2A77E007F00108D0280FB0EBE00EB0F80E8CE
:06003500E478FFF6D8FD9F
:200013007900E94400601B7A00900098780175AA00E493F2A308B8000205AAD9F4DAF275E7
:02003300AAFF22
:20003B007800E84400600A790175AA00E4F309D8FC7800E84400600C7900900001E4F0A3B9
:04005B00D8FCD9FAFA
:0D000600758107120094E58260030200037B
:04009400758200224F
:00000001FF
