:03000000020006F5
:03005F0002000399
:0300030002009662
:2000620075D90043E10175E24043A902438E08758D98438920D28ED299D29C22AF821099F2
:200082000280FB8F9922309804AF9980027FFFC2988F82227E007F007508C07509F9750AC6
:2000A200A4750BB0750C99750D92750E82750FF87510807511907512887513837514C675C2
:2000C20015A175168675178EC007C006120062D006D007751830751900751A31751B00757F
:2000E2001C32751D00751E33751F00752034752100752235752300752436752500752637C6
:20010200752700752838752900752A39752B00752C41752D00752E42752F007530437531BB
:200122000075324475330075344575350075364675370075A0C0C007C006120088AD82D0FA
:2001420006D007BD64028034BD69570EBE00010F740F5EFC7D0025E0FAED33EA2418F98771
:2001620082C007C006C005C00412007ED004D005D006D007EC2408F987A080261EBEFF0145
:200182001F740F5EFC7D002408F987A0EC2CFCED33EC2418F98782C007C00612007ED00647
:2001A200D007740F5EFC7D002408F987A02087083087FD0EBE00010F3086030201383086D7
:0901C200FD1EBEFF011F02013801
:06003500E478FFF6D8FD9F
:200013007900E94400601B7A009001CF780175AA00E493F2A308B8000205AAD9F4DAF275AF
:02003300AAFF22
:20003B007800E84400600A790175AA00E4F309D8FC7800E84400600C7900900001E4F0A3B9
:04005B00D8FCD9FAFA
:0D0006007581371201CBE582600302000313
:0401CB007582002217
:00000001FF
