:03000000020006F5
:03005F0002000399
:0300030002009761
:20006200AE82AF837C007D00C3EC9EED64808FF063F08095F0501D7A007B00C3EA9464EB3C
:200082006480948050070ABA00F10B80EE0CBC00D70D80D42275D90075E2407508C075091F
:2000A200F9750AA4750BB0750C99750D92750E82750FF875108075119075A0C03087030297
:2000C200013B7E007F00C3EE940AEF6480948050E87C007D00C3740A9C74808DF063F0805D
:2000E20095F0404EEC940AED64809480501EEC2408F987A09003E8C007C006C005C0041233
:200102000062D004D005D006D007801F8E03EB042408F987A09001F4C007C006C005C0041F
:20012200120062D004D005D006D0070CBC00A60D80A30EBE00900F808D75A0FF0200BB22EA
:06003500E478FFF6D8FD9F
:200013007900E94400601B7A00900146780175AA00E493F2A308B8000205AAD9F4DAF27538
:02003300AAFF22
:20003B007800E84400600A790175AA00E4F309D8FC7800E84400600C7900900001E4F0A3B9
:04005B00D8FCD9FAFA
:0D000600758111120142E5826003020003C2
:0401420075820022A0
:00000001FF
