:03000000020006F5
:03005F0002000399
:0300030002009761
:20006200AE82AF837C007D00C3EC9EED64808FF063F08095F0501D7A007B00C3EA940AEB96
:200082006480948050070ABA00F10B80EE0CBC00D70D80D42275D90075E2407508C075091F
:2000A200F9750AA4750BB0750C99750D92750E82750FF87510807511907E007F00C3EE94E6
:2000C2000AEF6480948050F1EE2408F987A09003E8C007C006120062D006D0070EBE00DDE0
:0300E2000F80DAB2
:06003500E478FFF6D8FD9F
:200013007900E94400601B7A009000E9780175AA00E493F2A308B8000205AAD9F4DAF27596
:02003300AAFF22
:20003B007800E84400600A790175AA00E4F309D8FC7800E84400600C7900900001E4F0A3B9
:04005B00D8FCD9FAFA
:0D0006007581111200E5E582600302000320
:0400E50075820022FE
:00000001FF
