:03000000020006F5
:03005F0002000399
:0300030002006296
:1E00620075D90075E2407F00EF700575A0B0800375A0FF2086F22086EFEFF4FF80F8D5
:06003500E478FFF6D8FD9F
:200013007900E94400601B7A00900084780175AA00E493F2A308B8000205AAD9F4DAF275FB
:02003300AAFF22
:20003B007800E84400600A790175AA00E4F309D8FC7800E84400600C7900900001E4F0A3B9
:04005B00D8FCD9FAFA
:0D000600758107120080E58260030200038F
:040080007582002263
:00000001FF
