:0400000002001132B7
:03000B000200A050
:20006A007508C07509F9750AA4750BB0750C99750D92750E82750FF8751080751198751216
:16008A00B075133CE4F514F515F516F517F518F519F51A02000EA4
:03000E00020146A6
:2000A000C020C0E0C0F0C082C083C007C006C005C004C003C002C001C000C0D075D0008515
:2000C000138C85128A0514E4B5140205157464B51406E4B5150280028005E4F514F51575B4
:2000E0001B0A751C008514828515831201DAAE828E16751B0A751C008514828515831201DB
:20010000B1AE828E17E51A6006851618851719D0D0D000D001D002D003D004D005D006D057
:2001200007D083D082D0F0D0E0D0203275D90075E24075A903758E02758901D2AFD2A92259
:20014000D28C22C28C2212012CA286E433FFA287E433FEEF6016EE60131201438508A0E4C7
:20016000F514F515F516F517F51A8014EE6008120140751A008009EF6006120143751A01B6
:20018000E51A7016E5176007E5172408F987A0E5162408F987A0B2A780AFE5196007E519FD
:1101A0002408F987A0E5182408F987A0B2A780992225
:2001B1007A10E4FBFCE58225E0F582E58333F583EB33FBEC33FCEB951BF5F0EC951C40063C
:0901D100FCABF0438201DADD22EF
:06004000E478FFF6D8FD94
:20001E007900E94400601B7A0090022B780175AA00E493F2A308B8000205AAD9F4DAF27547
:02003E00AAFF17
:2001DA00E51B451C60467A01E51B25E0F51BE51C334012F51CE582951BE583951C40030A5A
:2001FA0080E6C3E51C13F51CE51B13F51BC3E582951BF5F0E583951C4005F58385F082C325
:0D021A00E51C13F51CE51B13F51BDAE122B2
:200046007800E84400600A790175AA00E4F309D8FC7800E84400600C7900900001E4F0A3AE
:04006600D8FCD9FAEF
:0D001100758120120227E582600302000EB7
:0402270075820022BA
:00000001FF
