:0400000002002132A7
:03000B000201717E
:0100130032BA
:03001B000200BE22
:19007A00E4F508F509750A01F50BF510F511F512F513F516F51702001EBD
:03001E0002035486
:2000930075D90075E2402275A903758E02758911C28CC28E2275A88A22D28C758AB0758C7A
:2000B3003C22D28E758BB0758D3C22C020C0E0C0F0C082C083C007C006C005C004C003C011
:2000D30002C001C000C0D075D000AE12AF1374012EF512E43FF5131200B5AE12AF13BE0156
:2000F30005BF00028020BE0305BF0002801DBE0B05BF00028027BE0D05BF00028024BE1525
:2001130040BF003D803675A0FF8036E50E24A4F582E50F3403F583E493F5A0802475A0FF77
:20013300801FAF0C1FEF3395E0FEEF24A4F582EE3403F583E493F5A0C2A78005E4F512F5F9
:2001530013D0D0D000D001D002D003D004D005D006D007D083D082D0F0D0E0D02032C02026
:20017300C0E0C0F0C082C083C007C006C005C004C003C002C001C000C0D075D000AE10AF39
:200193001174012EF510E43FF5111200ACAE10AF11BE0105BF00028024BE0305BF000280FE
:2001B3002BBE0B05BF0002803EBE0D05BF00028041BE1506BF0003020262020267E51645B6
:2001D30017600302026775A0FF020267E51645176003020267E50824A4F582E5093403F53D
:2001F30083E493F5A0806DE5164517706775A0FF8062E51645177010E50A24A4F582E50B57
:200213003403F583E493F5A0E51645177002C2A7AE0AAF0B74012EF50AE43FF50B740AB574
:200233000A06E4B50B028002802AE4F50AF50BAE08AF09042EF508E43FF509740AB50806E7
:20025300E4B509028002800CE4F508F5098005E4F510F511D0D0D000D001D002D003D004CC
:20027300D005D006D007D083D082D0F0D0E0D0203220860C3086FD1200AC7514017515007B
:200293002220872E3087FDC28EC28CE4F510F511F512F513750A01F50BF508F509E5082478
:2002B300A4F582E5093403F583E493F5A0E4F514F515222087253087FD850A0C850B0D8511
:2002D300080E85090F751403751500AE16AF1774012EF516E43FF5170200B5222087243007
:2002F30087FDC28EAE16AF17EE24FFF516EF34FFF517E4F50CF50DF50EF50F751401F515C1
:200313000200AC2220861A3086FD850A0C850B0D85080E85090FC28C7514027515000200B2
:20033300B52220861B3086FDE4F50CF50DF50EF50FC28EE4F512F513751401F5150200ACEC
:200353002212009312009A1200A8C28CC28EE4F514F5159003A493F5A0AE14AF15C37403A9
:200373009EE49F40F4EE2E90037E7380068009800F801512028480E11203171202C680D9EA
:0D03930012029412033580D11202EF80CCCB
:0A03A400C0F9A4B0999282F880908D
:06005000E478FFF6D8FD84
:20002E007900E94400601B7A009003AE780175AA00E493F2A308B8000205AAD9F4DAF275B3
:02004E00AAFF07
:200056007800E84400600A790175AA00E4F309D8FC7800E84400600C7900900001E4F0A39E
:04007600D8FCD9FADF
:0D0021007581201203A0E582600302001E1D
:0403A0007582002240
:00000001FF
