:03000000020006F5
:03005F0002000399
:0300030002008672
:20006200AE82AF837C007D00C3EC9EED9F50070CBC00F50D80F27EFB7F041EBEFF011FEED2
:200082004F70F72275D90075E240750800750906750A5B750B4F750C66750D6D750E7D75AC
:2000A2000F0775107F75116F7E007F00EE2408F987A0900064C007C006120062D006D00756
:1200C2000EBE00010FC3EE9403EF6480948040DC80D6AF
:06003500E478FFF6D8FD9F
:200013007900E94400601B7A009000D8780175AA00E493F2A308B8000205AAD9F4DAF275A7
:02003300AAFF22
:20003B007800E84400600A790175AA00E4F309D8FC7800E84400600C7900900001E4F0A3B9
:04005B00D8FCD9FAFA
:0D0006007581111200D4E582600302000331
:0400D400758200220F
:00000001FF
