:0400000002001132B7
:03000B000200955B
:0E006A007508B075093CE4F50AF50B02000EAE
:03000E000200F2FB
:2000780075D90075E24075A903758E02758901D2AFD2A922D28C85088A85098C22C020C0EF
:20009800E0C0F0C082C083C007C006C005C004C003C002C001C000C0D075D00012008CAEF6
:2000B8000AAF0B74012EF50AE43FF50BAE0AAF0BBE150ABF0007B2A7E4F50AF50BD0D0D0DE
:2000D80000D001D002D003D004D005D006D007D083D082D0F0D0E0D0203212007812008CDD
:0200F80080FE88
:06004000E478FFF6D8FD94
:20001E007900E94400601B7A009000FE780175AA00E493F2A308B8000205AAD9F4DAF27576
:02003E00AAFF17
:200046007800E84400600A790175AA00E4F309D8FC7800E84400600C7900900001E4F0A3AE
:04006600D8FCD9FAEF
:0D0011007581201200FAE582600302000EE6
:0400FA0075820022E9
:00000001FF
