:04000000020089323F
:01000B0032C2
:0100130032BA
:01001B0032B2
:0100230032AA
:01002B0032A2
:01003300329A
:01003B003292
:01004300328A
:01004B003282
:01005300327A
:01005B003272
:01006300326A
:01006B003262
:01007300325A
:01007B003252
:0300830002011364
:0F00E200E4F508F509750A01F50BF50C02008627
:0300860002017DF7
:2000F10075D90075E24075B4F975B5FF75D21075AC4375D40F75E24075E30175E70275A841
:200111008022C0E0C007C0D075D000E5D25401600C53D2FE75080175090085D30CE5D2033B
:200131005401601953D2FDE50A450B600A850CD3E4F50AF50B8006750A01750B00D0D0D0D8
:2001510007D0E032AF82E50A450B60FA8F0C750A01750B0043D20222E50845096009AF0CA8
:20017100E4F508F50980027FFF8F82227E007F00750DC0750EF9750FA47510B075119975B0
:2001910012927513827514F87515807516907517887518837519C6751AA1751B86751C8E1D
:2001B100C007C0061200F1D006D007751D30751E00751F3175200075213275220075233318
:2001D100752400752534752600752735752800752936752A00752B37752C00752D38752E36
:2001F10000752F3975300075314175320075334275340075354375360075374475380075A1
:200211003945753A00753B46753C0075A0C0C007C006120169AD82D006D007BD6402803468
:20023100BD69570EBE00010F740F5EFC7D0025E0FAED33EA241DF98782C007C006C005C09C
:2002510004120155D004D005D006D007EC240DF987A080261EBEFF011F740F5EFC7D00246F
:200271000DF987A0EC2CFCED33EC241DF98782C007C006120155D006D007740F5EFC7D00E1
:1C029100240DF987A02087083087FD0EBE00010F30860302021F3086FD02021F0F
:0600B800E478FFF6D8FD1C
:200096007900E94400601B7A009002B1780175AA00E493F2A308B8000205AAD9F4DAF27549
:0200B600AAFF9F
:2000BE007800E84400600A790175AA00E4F309D8FC7800E84400600C7900900001E4F0A336
:0400DE00D8FCD9FA77
:0D00890075813C1202ADE582600302008625
:0402AD007582002234
:00000001FF
