:04000000020029329F
:01000B0032C2
:0100130032BA
:01001B0032B2
:030023000200B325
:0F008200E4F508F509750A01F50BF50C020026E7
:03002600020108CC
:2000910075D90043E10175E24043A902438E08758D98438920D28ED299D29CD2AFD2ACD2EE
:2000B100AB22C0E0109802800975080175090085990C1099028016E50A450B600A850C9955
:2000D100E4F50AF50B8006750A01750B00D0E032AF82E50A450B60FA8F0C750A01750B005F
:2000F100D29922E50845096009AF0CE4F508F50980027FFF8F82227E007F00750DC0750E2F
:20011100F9750FA47510B07511997512927513827514F875158075169075178875188375F7
:2001310019C6751AA1751B86751C8EC007C006120091D006D007751D30751E00751F3175FE
:200151002000752132752200752333752400752534752600752735752800752936752A0061
:20017100752B37752C00752D38752E00752F3975300075314175320075334275340075352C
:2001910043753600753744753800753945753A00753B46753C0075A0C0C007C0061200F412
:2001B100AD82D006D007BD64028034BD69570EBE00010F740F5EFC7D0025E0FAED33EA249B
:2001D1001DF98782C007C006C005C0041200E1D004D005D006D007EC240DF987A080261E8F
:2001F100BEFF011F740F5EFC7D00240DF987A0EC2CFCED33EC241DF98782C007C006120064
:20021100E1D006D007740F5EFC7D00240DF987A02087083087FD0EBE00010F308603020199
:0C023100AA3086FD1EBEFF011F0201AABC
:06005800E478FFF6D8FD7C
:200036007900E94400601B7A00900241780175AA00E493F2A308B8000205AAD9F4DAF27519
:02005600AAFFFF
:20005E007800E84400600A790175AA00E4F309D8FC7800E84400600C7900900001E4F0A396
:04007E00D8FCD9FAD7
:0D00290075813C12023DE582600302002655
:04023D0075820022A4
:00000001FF
