:03000000020006F5
:03005F0002000399
:0300030002009365
:2000620075D90043E10175E24043A902438E08758D98438920D28ED299C298D29C22AF8241
:2000820010990280FB8F99223098FD859982C2982212006212008AE58204F5821200808009
:0100A200F36A
:06003500E478FFF6D8FD9F
:200013007900E94400601B7A009000A7780175AA00E493F2A308B8000205AAD9F4DAF275D8
:02003300AAFF22
:20003B007800E84400600A790175AA00E4F309D8FC7800E84400600C7900900001E4F0A3B9
:04005B00D8FCD9FAFA
:0D0006007581071200A3E58260030200036C
:0400A3007582002240
:00000001FF
